{
  "_format": "hh-sol-artifact-1",
  "contractName": "UpdateBase64Transaction",
  "sourceName": "contracts/UpdateBase64Transaction.sol",
  "abi": [
    {
      "inputs": [],
      "stateMutability": "nonpayable",
      "type": "constructor"
    },
    {
      "anonymous": false,
      "inputs": [
        {
          "indexed": false,
          "internalType": "address",
          "name": "_user",
          "type": "address"
        },
        {
          "indexed": false,
          "internalType": "uint256",
          "name": "__blockNumber",
          "type": "uint256"
        },
        {
          "indexed": false,
          "internalType": "string",
          "name": "_base64",
          "type": "string"
        }
      ],
      "name": "SetBase64",
      "type": "event"
    },
    {
      "inputs": [],
      "name": "getBase64",
      "outputs": [
        {
          "internalType": "string",
          "name": "",
          "type": "string"
        }
      ],
      "stateMutability": "view",
      "type": "function"
    },
    {
      "inputs": [
        {
          "internalType": "uint256",
          "name": "_blockNumber",
          "type": "uint256"
        },
        {
          "internalType": "string",
          "name": "_newBase64",
          "type": "string"
        }
      ],
      "name": "setBase64",
      "outputs": [],
      "stateMutability": "nonpayable",
      "type": "function"
    }
  ],
  "bytecode": "0x608060405234801561001057600080fd5b506105c2806100206000396000f3fe608060405234801561001057600080fd5b50600436106100365760003560e01c8063b9866e0d1461003b578063fe7df6a114610057575b600080fd5b6100556004803603810190610050919061028c565b610075565b005b61005f6100d2565b60405161006c919061037d565b60405180910390f35b806000908051906020019061008b929190610164565b50816001819055507f319706bac10a739437de8321d545fb105b3ea5dd9ec104e917157cf25065c7583383836040516100c69392919061033f565b60405180910390a15050565b6060600080546100e19061048f565b80601f016020809104026020016040519081016040528092919081815260200182805461010d9061048f565b801561015a5780601f1061012f5761010080835404028352916020019161015a565b820191906000526020600020905b81548152906001019060200180831161013d57829003601f168201915b5050505050905090565b8280546101709061048f565b90600052602060002090601f01602090048101928261019257600085556101d9565b82601f106101ab57805160ff19168380011785556101d9565b828001600101855582156101d9579182015b828111156101d85782518255916020019190600101906101bd565b5b5090506101e691906101ea565b5090565b5b808211156102035760008160009055506001016101eb565b5090565b600061021a610215846103c4565b61039f565b90508281526020810184848401111561023657610235610555565b5b61024184828561044d565b509392505050565b600082601f83011261025e5761025d610550565b5b813561026e848260208601610207565b91505092915050565b60008135905061028681610575565b92915050565b600080604083850312156102a3576102a261055f565b5b60006102b185828601610277565b925050602083013567ffffffffffffffff8111156102d2576102d161055a565b5b6102de85828601610249565b9150509250929050565b6102f181610411565b82525050565b6000610302826103f5565b61030c8185610400565b935061031c81856020860161045c565b61032581610564565b840191505092915050565b61033981610443565b82525050565b600060608201905061035460008301866102e8565b6103616020830185610330565b818103604083015261037381846102f7565b9050949350505050565b6000602082019050818103600083015261039781846102f7565b905092915050565b60006103a96103ba565b90506103b582826104c1565b919050565b6000604051905090565b600067ffffffffffffffff8211156103df576103de610521565b5b6103e882610564565b9050602081019050919050565b600081519050919050565b600082825260208201905092915050565b600061041c82610423565b9050919050565b600073ffffffffffffffffffffffffffffffffffffffff82169050919050565b6000819050919050565b82818337600083830152505050565b60005b8381101561047a57808201518184015260208101905061045f565b83811115610489576000848401525b50505050565b600060028204905060018216806104a757607f821691505b602082108114156104bb576104ba6104f2565b5b50919050565b6104ca82610564565b810181811067ffffffffffffffff821117156104e9576104e8610521565b5b80604052505050565b7f4e487b7100000000000000000000000000000000000000000000000000000000600052602260045260246000fd5b7f4e487b7100000000000000000000000000000000000000000000000000000000600052604160045260246000fd5b600080fd5b600080fd5b600080fd5b600080fd5b6000601f19601f8301169050919050565b61057e81610443565b811461058957600080fd5b5056fea26469706673582212205223663a380be442a47dc21b88b801a4fa23598e2d0577c8d40d0555cd56a79d64736f6c63430008070033",
  "linkReferences": {},
  "deployedLinkReferences": {}
}